{
    "contractName": "Character",
    "abi": [
        {
            "inputs": [
                {
                    "internalType": "string",
                    "name": "_name",
                    "type": "string"
                },
                {
                    "internalType": "string",
                    "name": "_symbol",
                    "type": "string"
                },
                {
                    "internalType": "string",
                    "name": "_tokenURI",
                    "type": "string"
                },
                {
                    "internalType": "address",
                    "name": "_ownersContract",
                    "type": "address"
                }
            ],
            "stateMutability": "nonpayable",
            "type": "constructor"
        },
        {
            "anonymous": false,
            "inputs": [
                {
                    "indexed": true,
                    "internalType": "address",
                    "name": "_owner",
                    "type": "address"
                },
                {
                    "indexed": true,
                    "internalType": "address",
                    "name": "_spender",
                    "type": "address"
                },
                {
                    "indexed": false,
                    "internalType": "uint256",
                    "name": "_value",
                    "type": "uint256"
                }
            ],
            "name": "Approval",
            "type": "event"
        },
        {
            "anonymous": false,
            "inputs": [
                {
                    "indexed": true,
                    "internalType": "address",
                    "name": "_from",
                    "type": "address"
                },
                {
                    "indexed": true,
                    "internalType": "address",
                    "name": "_to",
                    "type": "address"
                },
                {
                    "indexed": false,
                    "internalType": "uint256",
                    "name": "_value",
                    "type": "uint256"
                }
            ],
            "name": "Transfer",
            "type": "event"
        },
        {
            "inputs": [
                {
                    "internalType": "uint256",
                    "name": "_tokenId",
                    "type": "uint256"
                }
            ],
            "name": "allowance",
            "outputs": [
                {
                    "internalType": "address",
                    "name": "",
                    "type": "address"
                }
            ],
            "stateMutability": "view",
            "type": "function"
        },
        {
            "inputs": [
                {
                    "internalType": "address",
                    "name": "_approved",
                    "type": "address"
                },
                {
                    "internalType": "uint256",
                    "name": "_tokenId",
                    "type": "uint256"
                }
            ],
            "name": "approve",
            "outputs": [],
            "stateMutability": "nonpayable",
            "type": "function"
        },
        {
            "inputs": [
                {
                    "internalType": "address",
                    "name": "_owner",
                    "type": "address"
                }
            ],
            "name": "balanceOf",
            "outputs": [
                {
                    "internalType": "uint256",
                    "name": "",
                    "type": "uint256"
                }
            ],
            "stateMutability": "view",
            "type": "function"
        },
        {
            "inputs": [
                {
                    "internalType": "uint256",
                    "name": "_tokenId",
                    "type": "uint256"
                },
                {
                    "internalType": "string",
                    "name": "_newName",
                    "type": "string"
                }
            ],
            "name": "buy",
            "outputs": [],
            "stateMutability": "nonpayable",
            "type": "function"
        },
        {
            "inputs": [],
            "name": "collectFee",
            "outputs": [],
            "stateMutability": "nonpayable",
            "type": "function"
        },
        {
            "inputs": [],
            "name": "currentTokenID",
            "outputs": [
                {
                    "internalType": "uint256",
                    "name": "_currentTokenID",
                    "type": "uint256"
                }
            ],
            "stateMutability": "view",
            "type": "function"
        },
        {
            "inputs": [
                {
                    "internalType": "uint256",
                    "name": "_characterId",
                    "type": "uint256"
                },
                {
                    "internalType": "uint256",
                    "name": "attackPoints",
                    "type": "uint256"
                },
                {
                    "internalType": "uint256",
                    "name": "armorPoints",
                    "type": "uint256"
                },
                {
                    "internalType": "uint256",
                    "name": "sellPrice",
                    "type": "uint256"
                },
                {
                    "internalType": "uint256",
                    "name": "requiredExperience",
                    "type": "uint256"
                }
            ],
            "name": "decreaseStats",
            "outputs": [],
            "stateMutability": "nonpayable",
            "type": "function"
        },
        {
            "inputs": [
                {
                    "internalType": "uint256",
                    "name": "_tokenId",
                    "type": "uint256"
                },
                {
                    "internalType": "uint256",
                    "name": "_weaponId",
                    "type": "uint256"
                }
            ],
            "name": "equip",
            "outputs": [],
            "stateMutability": "nonpayable",
            "type": "function"
        },
        {
            "inputs": [
                {
                    "internalType": "uint256",
                    "name": "_tokenId",
                    "type": "uint256"
                }
            ],
            "name": "getSellinformation",
            "outputs": [
                {
                    "internalType": "bool",
                    "name": "_onSale",
                    "type": "bool"
                },
                {
                    "internalType": "uint256",
                    "name": "_price",
                    "type": "uint256"
                },
                {
                    "internalType": "uint256",
                    "name": "_requiredExperience",
                    "type": "uint256"
                }
            ],
            "stateMutability": "view",
            "type": "function"
        },
        {
            "inputs": [
                {
                    "internalType": "uint256",
                    "name": "_characterId",
                    "type": "uint256"
                },
                {
                    "internalType": "uint256",
                    "name": "attackPoints",
                    "type": "uint256"
                },
                {
                    "internalType": "uint256",
                    "name": "armorPoints",
                    "type": "uint256"
                },
                {
                    "internalType": "uint256",
                    "name": "sellPrice",
                    "type": "uint256"
                },
                {
                    "internalType": "uint256",
                    "name": "requiredExperience",
                    "type": "uint256"
                }
            ],
            "name": "increaseStats",
            "outputs": [],
            "stateMutability": "nonpayable",
            "type": "function"
        },
        {
            "inputs": [
                {
                    "internalType": "uint256",
                    "name": "_tokenId",
                    "type": "uint256"
                },
                {
                    "internalType": "uint256",
                    "name": "_weaponId",
                    "type": "uint256"
                }
            ],
            "name": "isEquiped",
            "outputs": [
                {
                    "internalType": "bool",
                    "name": "",
                    "type": "bool"
                }
            ],
            "stateMutability": "view",
            "type": "function"
        },
        {
            "inputs": [
                {
                    "internalType": "uint256",
                    "name": "_tokenId",
                    "type": "uint256"
                }
            ],
            "name": "metadataOf",
            "outputs": [
                {
                    "components": [
                        {
                            "internalType": "string",
                            "name": "name",
                            "type": "string"
                        },
                        {
                            "internalType": "uint256",
                            "name": "attackPoints",
                            "type": "uint256"
                        },
                        {
                            "internalType": "uint256",
                            "name": "armorPoints",
                            "type": "uint256"
                        },
                        {
                            "internalType": "uint256[3]",
                            "name": "weapon",
                            "type": "uint256[3]"
                        },
                        {
                            "internalType": "uint256",
                            "name": "sellPrice",
                            "type": "uint256"
                        },
                        {
                            "internalType": "uint256",
                            "name": "requiredExperience",
                            "type": "uint256"
                        },
                        {
                            "internalType": "bool",
                            "name": "onSale",
                            "type": "bool"
                        }
                    ],
                    "internalType": "struct ICharacter.Metadata",
                    "name": "_metadata",
                    "type": "tuple"
                }
            ],
            "stateMutability": "view",
            "type": "function"
        },
        {
            "inputs": [
                {
                    "internalType": "uint256",
                    "name": "_attackPoints",
                    "type": "uint256"
                },
                {
                    "internalType": "uint256",
                    "name": "_armorPoints",
                    "type": "uint256"
                },
                {
                    "internalType": "uint256[3]",
                    "name": "_weapon",
                    "type": "uint256[3]"
                },
                {
                    "internalType": "uint256",
                    "name": "_sellPrice",
                    "type": "uint256"
                },
                {
                    "internalType": "uint256",
                    "name": "_requiredExperience",
                    "type": "uint256"
                }
            ],
            "name": "mintHero",
            "outputs": [],
            "stateMutability": "nonpayable",
            "type": "function"
        },
        {
            "inputs": [],
            "name": "mintPrice",
            "outputs": [
                {
                    "internalType": "uint256",
                    "name": "_mintPrice",
                    "type": "uint256"
                }
            ],
            "stateMutability": "view",
            "type": "function"
        },
        {
            "inputs": [],
            "name": "name",
            "outputs": [
                {
                    "internalType": "string",
                    "name": "_name",
                    "type": "string"
                }
            ],
            "stateMutability": "view",
            "type": "function"
        },
        {
            "inputs": [
                {
                    "internalType": "address",
                    "name": "owner",
                    "type": "address"
                }
            ],
            "name": "ownedBy",
            "outputs": [
                {
                    "internalType": "uint256",
                    "name": "",
                    "type": "uint256"
                }
            ],
            "stateMutability": "view",
            "type": "function"
        },
        {
            "inputs": [
                {
                    "internalType": "uint256",
                    "name": "_tokenId",
                    "type": "uint256"
                }
            ],
            "name": "ownerOf",
            "outputs": [
                {
                    "internalType": "address",
                    "name": "",
                    "type": "address"
                }
            ],
            "stateMutability": "view",
            "type": "function"
        },
        {
            "inputs": [
                {
                    "internalType": "string",
                    "name": "_name",
                    "type": "string"
                }
            ],
            "name": "safeMint",
            "outputs": [],
            "stateMutability": "nonpayable",
            "type": "function"
        },
        {
            "inputs": [
                {
                    "internalType": "address",
                    "name": "_to",
                    "type": "address"
                },
                {
                    "internalType": "uint256",
                    "name": "_tokenId",
                    "type": "uint256"
                }
            ],
            "name": "safeTransfer",
            "outputs": [],
            "stateMutability": "nonpayable",
            "type": "function"
        },
        {
            "inputs": [
                {
                    "internalType": "address",
                    "name": "_from",
                    "type": "address"
                },
                {
                    "internalType": "address",
                    "name": "_to",
                    "type": "address"
                },
                {
                    "internalType": "uint256",
                    "name": "_tokenId",
                    "type": "uint256"
                }
            ],
            "name": "safeTransferFrom",
            "outputs": [],
            "stateMutability": "nonpayable",
            "type": "function"
        },
        {
            "inputs": [
                {
                    "internalType": "uint256",
                    "name": "_mintPrice",
                    "type": "uint256"
                }
            ],
            "name": "setMintingPrice",
            "outputs": [],
            "stateMutability": "nonpayable",
            "type": "function"
        },
        {
            "inputs": [
                {
                    "internalType": "uint256",
                    "name": "_tokenId",
                    "type": "uint256"
                },
                {
                    "internalType": "bool",
                    "name": "_onSale",
                    "type": "bool"
                }
            ],
            "name": "setOnSale",
            "outputs": [],
            "stateMutability": "nonpayable",
            "type": "function"
        },
        {
            "inputs": [
                {
                    "internalType": "uint256",
                    "name": "_tokenId",
                    "type": "uint256"
                }
            ],
            "name": "slotsAreFull",
            "outputs": [
                {
                    "internalType": "bool",
                    "name": "",
                    "type": "bool"
                }
            ],
            "stateMutability": "view",
            "type": "function"
        },
        {
            "inputs": [],
            "name": "symbol",
            "outputs": [
                {
                    "internalType": "string",
                    "name": "_symbol",
                    "type": "string"
                }
            ],
            "stateMutability": "view",
            "type": "function"
        },
        {
            "inputs": [],
            "name": "tokenURI",
            "outputs": [
                {
                    "internalType": "string",
                    "name": "_tokenURI",
                    "type": "string"
                }
            ],
            "stateMutability": "view",
            "type": "function"
        },
        {
            "inputs": [],
            "name": "totalSupply",
            "outputs": [
                {
                    "internalType": "uint256",
                    "name": "",
                    "type": "uint256"
                }
            ],
            "stateMutability": "view",
            "type": "function"
        },
        {
            "inputs": [
                {
                    "internalType": "uint256",
                    "name": "_tokenId",
                    "type": "uint256"
                },
                {
                    "internalType": "uint256",
                    "name": "_weaponId",
                    "type": "uint256"
                }
            ],
            "name": "unEquip",
            "outputs": [],
            "stateMutability": "nonpayable",
            "type": "function"
        },
        {
            "inputs": [
                {
                    "internalType": "uint256",
                    "name": "_characterId",
                    "type": "uint256"
                },
                {
                    "internalType": "uint256",
                    "name": "attackPoints",
                    "type": "uint256"
                },
                {
                    "internalType": "uint256",
                    "name": "armorPoints",
                    "type": "uint256"
                },
                {
                    "internalType": "uint256",
                    "name": "sellPrice",
                    "type": "uint256"
                }
            ],
            "name": "upgradeStats",
            "outputs": [],
            "stateMutability": "nonpayable",
            "type": "function"
        },
        {
            "inputs": [
                {
                    "internalType": "uint256",
                    "name": "_weaponIndex",
                    "type": "uint256"
                }
            ],
            "name": "weapon",
            "outputs": [
                {
                    "internalType": "uint256",
                    "name": "_weaponId",
                    "type": "uint256"
                }
            ],
            "stateMutability": "view",
            "type": "function"
        },
        {
            "inputs": [
                {
                    "internalType": "uint256",
                    "name": "_tokenId",
                    "type": "uint256"
                }
            ],
            "name": "weaponCount",
            "outputs": [
                {
                    "internalType": "uint256",
                    "name": "_weaponCount",
                    "type": "uint256"
                }
            ],
            "stateMutability": "view",
            "type": "function"
        }
    ],
    "bytecode": "60806040523480156200001157600080fd5b5060405162002cb238038062002cb28339810160408190526200003491620001a1565b82516003146200007b5760405162461bcd60e51b815260206004820152600e60248201526d125b9d985b1a590814de5b589bdb60921b604482015260640160405180910390fd5b600060068190556005819055620000938582620002e3565b506001620000a28482620002e3565b506002620000b18382620002e3565b50600380546001600160a01b0319166001600160a01b039290921691909117905550620003af915050565b634e487b7160e01b600052604160045260246000fd5b600082601f8301126200010457600080fd5b81516001600160401b0380821115620001215762000121620000dc565b604051601f8301601f19908116603f011681019082821181831017156200014c576200014c620000dc565b816040528381526020925086838588010111156200016957600080fd5b600091505b838210156200018d57858201830151818301840152908201906200016e565b600093810190920192909252949350505050565b60008060008060808587031215620001b857600080fd5b84516001600160401b0380821115620001d057600080fd5b620001de88838901620000f2565b95506020870151915080821115620001f557600080fd5b6200020388838901620000f2565b945060408701519150808211156200021a57600080fd5b506200022987828801620000f2565b606087015190935090506001600160a01b03811681146200024957600080fd5b939692955090935050565b600181811c908216806200026957607f821691505b6020821081036200028a57634e487b7160e01b600052602260045260246000fd5b50919050565b601f821115620002de57600081815260208120601f850160051c81016020861015620002b95750805b601f850160051c820191505b81811015620002da57828155600101620002c5565b5050505b505050565b81516001600160401b03811115620002ff57620002ff620000dc565b620003178162000310845462000254565b8462000290565b602080601f8311600181146200034f5760008415620003365750858301515b600019600386901b1c1916600185901b178555620002da565b600085815260208120601f198616915b8281101562000380578886015182559484019460019091019084016200035f565b50858210156200039f5787850151600019600388901b60f8161c191681555b5050505050600190811b01905550565b6128f380620003bf6000396000f3fe608060405234801561001057600080fd5b50600436106101da5760003560e01c806370a0823111610104578063b7dc3b18116100a2578063dac49e8511610071578063dac49e851461042a578063dbaa7eff1461043d578063f6a822031461046d578063fd1773dd1461048057600080fd5b8063b7dc3b18146103fc578063b83776441461040f578063bb62115e14610232578063d4d5d32a1461042257600080fd5b80639c9f55fb116100de5780639c9f55fb146103a05780639d06cbb5146103b3578063a55c6986146103d6578063ab9d983b146103e957600080fd5b806370a082311461035c5780638417b47f1461038557806395d89b411461039857600080fd5b80632e43d7dc1161017c5780634d0a2c241161014b5780634d0a2c24146103055780636352211e146103185780636817c76c14610341578063695850fb1461034957600080fd5b80632e43d7dc1461027d5780633c130d90146102d7578063423f6cef146102df57806342842e0e146102f257600080fd5b806318160ddd116101b857806318160ddd146102325780631fb934381461024457806328257532146102575780632d758d951461026a57600080fd5b806306fdde03146101df578063095ea7b3146101fd5780630ef7cc8e14610212575b600080fd5b6101e7610493565b6040516101f4919061227b565b60405180910390f35b61021061020b3660046122aa565b610525565b005b6102256102203660046122d6565b61065d565b6040516101f491906122ef565b6006545b6040519081526020016101f4565b610210610252366004612390565b610785565b61021061026536600461242f565b6109f6565b610210610278366004612451565b610a7f565b6102bf61028b3660046122d6565b6000818152600960209081526040808320546001600160a01b03908116845260088352818420948452939091529020541690565b6040516001600160a01b0390911681526020016101f4565b6101e7610bb9565b6102106102ed3660046122aa565b610bc8565b61021061030036600461248c565b610d82565b6102106103133660046124cd565b610fd5565b6102bf6103263660046122d6565b6000908152600960205260409020546001600160a01b031690565b600554610236565b61021061035736600461258f565b611028565b61023661036a3660046125cc565b6001600160a01b031660009081526007602052604090205490565b6102106103933660046122d6565b600555565b6101e761138d565b6102106103ae366004612451565b61139c565b6103c66103c13660046122d6565b6114c9565b60405190151581526020016101f4565b6102366103e43660046122d6565b6115c6565b6102106103f736600461242f565b611624565b61021061040a3660046125e9565b6116a7565b61023661041d3660046125cc565b611b9a565b610210611d3d565b6103c661043836600461242f565b611e08565b61045061044b3660046122d6565b611e6c565b6040805193151584526020840192909252908201526060016101f4565b61021061047b366004612630565b611eca565b61023661048e3660046122d6565b61202f565b6060600080546104a290612662565b80601f01602080910402602001604051908101604052809291908181526020018280546104ce90612662565b801561051b5780601f106104f05761010080835404028352916020019161051b565b820191906000526020600020905b8154815290600101906020018083116104fe57829003601f168201915b5050505050905090565b8060008111801561053857506006548111155b61055d5760405162461bcd60e51b815260040161055490612696565b60405180910390fd5b6000828152600960205260409020546001600160a01b03163314806105b157506000828152600960209081526040808320546001600160a01b03908116845260088352818420868552909252909120541633145b6105ee5760405162461bcd60e51b815260206004820152600e60248201526d139bdd08185d5d1a1bdc9a5e995960921b6044820152606401610554565b33600081815260086020908152604080832086845282529182902080546001600160a01b0319166001600160a01b03881690811790915591518581529192917f8c5be1e5ebec7d5bd14f71427d1e84f3dd0314c0f7b2291e5b200ac8c7c3b925910160405180910390a3505050565b61066561217f565b6000828152600a602052604090819020815160e0810190925280548290829061068d90612662565b80601f01602080910402602001604051908101604052809291908181526020018280546106b990612662565b80156107065780601f106106db57610100808354040283529160200191610706565b820191906000526020600020905b8154815290600101906020018083116106e957829003601f168201915b50505091835250506001820154602082015260028201546040808301919091528051606080820192839052909201919060038085019182845b81548152602001906001019080831161073f575050509183525050600682015460208201526007820154604082015260089091015460ff16151560609091015292915050565b8460648110156107cf5760405162461bcd60e51b8152602060048201526015602482015274496e76616c6964205f61747461636b506f696e747360581b6044820152606401610554565b8460328110156108185760405162461bcd60e51b8152602060048201526014602482015273496e76616c6964205f61726d6f72506f696e747360601b6044820152606401610554565b836000811161085e5760405162461bcd60e51b8152602060048201526012602482015271496e76616c6964205f73656c6c507269636560701b6044820152606401610554565b8360648110156108b05760405162461bcd60e51b815260206004820152601b60248201527f496e76616c6964205f7265717569726564457870657269656e636500000000006044820152606401610554565b600680549060006108c0836126d5565b90915550506040805161012081018252600960e08201908152684865726f206e616d6560b81b610100830152815260208082018c90528183018b9052606082018a90526080820189905260a08201889052600160c08301526006546000908152600a90915291909120815181906109379082612734565b506020820151600182015560408201516002820155606082015161096190600380840191906121c4565b50608082015160068281019190915560a083015160078084019190915560c0909301516008909201805460ff191692151592909217909155805460009081526009602090815260408083208054336001600160a01b031990911681179091559354938352600b82528083209390935592909252812080548892906109e69084906127f4565b9091555050505050505050505050565b6000805b600381108015610a08575081155b15610a79576000848152600a6020526040812060039081019083908110610a3157610a31612807565b015403610a675782600a60008681526020019081526020016000206003018260038110610a6057610a60612807565b0155600191505b80610a71816126d5565b9150506109fa565b50505050565b600354604051636678a2a560e11b81526000916001600160a01b03169063ccf1454a90610aae9060040161281d565b602060405180830381865afa158015610acb573d6000803e3d6000fd5b505050506040513d601f19601f82011682018060405250810190610aef919061283d565b9050336001600160a01b03821614610b195760405162461bcd60e51b81526004016105549061285a565b6000868152600a602052604081206001018054879290610b3a9084906127f4565b90915550506000868152600a602052604081206002018054869290610b609084906127f4565b90915550506000868152600a602052604081206006018054859290610b869084906127f4565b90915550506000868152600a602052604081206007018054849290610bac9084906127f4565b9091555050505050505050565b6060600280546104a290612662565b80600081118015610bdb57506006548111155b610bf75760405162461bcd60e51b815260040161055490612696565b826001600160a01b038116610c405760405162461bcd60e51b815260206004820152600f60248201526e496e76616c6964206164647265737360881b6044820152606401610554565b600083815260096020526040902054839033906001600160a01b03168114610c9a5760405162461bcd60e51b815260206004820152600d60248201526c2737ba103a34329037bbb732b960991b6044820152606401610554565b6000858152600a602090815260408083206006015433845260079092528220805491929091610cca908490612891565b90915550506000858152600a60209081526040808320600601546001600160a01b038a16845260079092528220805491929091610d089084906127f4565b9091555050600085815260096020908152604080832080546001600160a01b0319166001600160a01b038b16908117909155808452600b8352928190208890555187815233917fddf252ad1be2c89b69c2b068fc378daa952ba7f163c4a11628f55a4df523b3ef910160405180910390a35b505050505050565b80600081118015610d9557506006548111155b610db15760405162461bcd60e51b815260040161055490612696565b826001600160a01b038116610dfa5760405162461bcd60e51b815260206004820152600f60248201526e496e76616c6964206164647265737360881b6044820152606401610554565b600083815260096020526040902054839086906001600160a01b03808316911614610e575760405162461bcd60e51b815260206004820152600d60248201526c2737ba103a34329037bbb732b960991b6044820152606401610554565b6000858152600960205260409020546001600160a01b0316331480610eab57506000858152600960209081526040808320546001600160a01b03908116845260088352818420898552909252909120541633145b610ee85760405162461bcd60e51b815260206004820152600e60248201526d139bdd08185d5d1a1bdc9a5e995960921b6044820152606401610554565b6000858152600a602090815260408083206006015433845260079092528220805491929091610f18908490612891565b90915550506000858152600a60209081526040808320600601546001600160a01b038a16845260079092528220805491929091610f569084906127f4565b9091555050600085815260096020908152604080832080546001600160a01b0319166001600160a01b038b8116918217909255808552600b8452938290208990559051888152908a16917fddf252ad1be2c89b69c2b068fc378daa952ba7f163c4a11628f55a4df523b3ef910160405180910390a35b50505050505050565b81600081118015610fe857506006548111155b6110045760405162461bcd60e51b815260040161055490612696565b506000918252600a6020526040909120600801805460ff1916911515919091179055565b60008151116110695760405162461bcd60e51b815260206004820152600d60248201526c496e76616c6964205f6e616d6560981b6044820152606401610554565b600354604051636678a2a560e11b8152602060048201526005602482015264527562696560d81b60448201526001600160a01b0390911690600090829063ccf1454a90606401602060405180830381865afa1580156110cc573d6000803e3d6000fd5b505050506040513d601f19601f820116820180604052508101906110f0919061283d565b6005546040516370a0823160e01b8152336004820152919250906001600160a01b038316906370a0823190602401602060405180830381865afa15801561113b573d6000803e3d6000fd5b505050506040513d601f19601f8201168201806040525081019061115f91906128a4565b1161119d5760405162461bcd60e51b815260206004820152600e60248201526d09cdee840cadcdeeaced0408aa8960931b6044820152606401610554565b60055460405163af0825af60e01b815233600482015260248101919091526001600160a01b0382169063af0825af90604401600060405180830381600087803b1580156111e957600080fd5b505af11580156111fd573d6000803e3d6000fd5b505060068054925090506000611212836126d5565b91905055506040518060e0016040528084815260200160648152602001603281526020016040518060600160405280600081526020016000815260200160008152508152602001600081526020016000815260200160001515815250600a6000600654815260200190815260200160002060008201518160000190816112989190612734565b50602082015160018201556040820151600282015560608201516112c290600380840191906121c4565b50608082015160068281019190915560a0830151600783015560c0909201516008909101805460ff1916911515919091179055805460009081526009602090815260408083208054336001600160a01b031990911681179091559354848452600b9092529182902055516310f29c1d60e11b815260048101919091526103e860248201526001600160a01b038216906321e5383a90604401600060405180830381600087803b15801561137457600080fd5b505af1158015610fcc573d6000803e3d6000fd5b505050565b6060600180546104a290612662565b600354604051636678a2a560e11b81526000916001600160a01b03169063ccf1454a906113cb9060040161281d565b602060405180830381865afa1580156113e8573d6000803e3d6000fd5b505050506040513d601f19601f8201168201806040525081019061140c919061283d565b9050336001600160a01b038216146114365760405162461bcd60e51b81526004016105549061285a565b6000868152600a602052604081206001018054879290611457908490612891565b90915550506000868152600a60205260408120600201805486929061147d908490612891565b90915550506000868152600a6020526040812060060180548592906114a3908490612891565b90915550506000868152600a602052604081206007018054849290610bac908490612891565b600354604051636678a2a560e11b815260009182916001600160a01b039091169063ccf1454a906114fc9060040161281d565b602060405180830381865afa158015611519573d6000803e3d6000fd5b505050506040513d601f19601f8201168201806040525081019061153d919061283d565b9050336001600160a01b038216146115675760405162461bcd60e51b81526004016105549061285a565b60005b60038110156115bc576000848152600a602052604090206003908101908290811061159757611597612807565b01546000036115aa575060009392505050565b806115b4816126d5565b91505061156a565b5060019392505050565b6000805b600381101561161e576000838152600a60205260409020600390810190829081106115f7576115f7612807565b01541561160c5781611608816126d5565b9250505b80611616816126d5565b9150506115ca565b50919050565b600160005b6003811080156116365750815b15610a795782600a6000868152602001908152602001600020600301826003811061166357611663612807565b015403611695576000848152600a602052604081206003908101908390811061168e5761168e612807565b0155600091505b8061169f816126d5565b915050611629565b600354604051636678a2a560e11b8152602060048201526005602482015264527562696560d81b60448201526001600160a01b0390911690600090829063ccf1454a90606401602060405180830381865afa15801561170a573d6000803e3d6000fd5b505050506040513d601f19601f8201168201806040525081019061172e919061283d565b90506000826001600160a01b031663ccf1454a6040518163ffffffff1660e01b815260040161175c9061281d565b602060405180830381865afa158015611779573d6000803e3d6000fd5b505050506040513d601f19601f8201168201806040525081019061179d919061283d565b90506000851180156117b157506006548511155b6117cd5760405162461bcd60e51b815260040161055490612696565b6000858152600a6020526040908190206006015490516370a0823160e01b81523360048201526001600160a01b038416906370a0823190602401602060405180830381865afa158015611824573d6000803e3d6000fd5b505050506040513d601f19601f8201168201806040525081019061184891906128a4565b10156118875760405162461bcd60e51b815260206004820152600e60248201526d09cdee840cadcdeeaced0408aa8960931b6044820152606401610554565b6000858152600a602052604090206008015460ff166118e05760405162461bcd60e51b8152602060048201526015602482015274436861726163746572206e6f74206f6e2073616c6560581b6044820152606401610554565b6000858152600a6020526040908190206007015490516370a0823160e01b81523360048201526001600160a01b038416906370a0823190602401602060405180830381865afa158015611937573d6000803e3d6000fd5b505050506040513d601f19601f8201168201806040525081019061195b91906128a4565b10156119a95760405162461bcd60e51b815260206004820152601760248201527f496e73756666696369656e7420657870657269656e63650000000000000000006044820152606401610554565b60005b6003811015611a53576000868152600a60205260409020600390810190829081106119d9576119d9612807565b015415611a415760405163687c4fa760e01b8152600481018790523360248201526001600160a01b0383169063687c4fa790604401600060405180830381600087803b158015611a2857600080fd5b505af1158015611a3c573d6000803e3d6000fd5b505050505b80611a4b816126d5565b9150506119ac565b506000858152600a60205260409081902060060154905163af0825af60e01b815233600482015260248101919091526001600160a01b0383169063af0825af90604401600060405180830381600087803b158015611ab057600080fd5b505af1158015611ac4573d6000803e3d6000fd5b505050600086815260096020908152604080832054600a909252918290206006015491516310f29c1d60e11b81526001600160a01b0391821660048201526024810192909252841691506321e5383a90604401600060405180830381600087803b158015611b3157600080fd5b505af1158015611b45573d6000803e3d6000fd5b5050506000868152600a602052604090209050611b628582612734565b505050600083815260096020908152604080832080546001600160a01b031916339081179091558352600b9091529020929092555050565b600354604051636678a2a560e11b815260009182916001600160a01b039091169063ccf1454a90611bcd9060040161281d565b602060405180830381865afa158015611bea573d6000803e3d6000fd5b505050506040513d601f19601f82011682018060405250810190611c0e919061283d565b600354604051636678a2a560e11b815260206004820152600a602482015269457870657269656e636560b01b60448201529192506000916001600160a01b039091169063ccf1454a90606401602060405180830381865afa158015611c77573d6000803e3d6000fd5b505050506040513d601f19601f82011682018060405250810190611c9b919061283d565b9050336001600160a01b0383161480611cbc5750336001600160a01b038216145b611d1f5760405162461bcd60e51b815260206004820152602e60248201527f4e6f742063616c6c656420627920776561706f6e73206e6f722065787065726960448201526d656e636520636f6e74726163747360901b6064820152608401610554565b5050506001600160a01b03166000908152600b602052604090205490565b60004711611d7c5760405162461bcd60e51b815260206004820152600c60248201526b7a65726f2062616c616e636560a01b6044820152606401610554565b6003546001600160a01b03163314611dcc5760405162461bcd60e51b8152602060048201526013602482015272139bdd081bdddb995c9cc818dbdb9d1c9858dd606a1b6044820152606401610554565b6003546040516001600160a01b03909116904780156108fc02916000818181858888f19350505050158015611e05573d6000803e3d6000fd5b50565b6000805b6003811015611e605782600a60008681526020019081526020016000206003018260038110611e3d57611e3d612807565b015403611e4e576001915050611e66565b80611e58816126d5565b915050611e0c565b50600090505b92915050565b600080600083600081118015611e8457506006548111155b611ea05760405162461bcd60e51b815260040161055490612696565b505050600091825250600a602052604090206008810154600682015460079092015460ff90911692565b600354604051636678a2a560e11b815260206004820152600a602482015269457870657269656e636560b01b60448201526000916001600160a01b03169063ccf1454a90606401602060405180830381865afa158015611f2e573d6000803e3d6000fd5b505050506040513d601f19601f82011682018060405250810190611f52919061283d565b9050336001600160a01b03821614611fb65760405162461bcd60e51b815260206004820152602160248201527f4e6f742063616c6c656420627920657870657269656e636520636f6e747261636044820152601d60fa1b6064820152608401610554565b6000858152600a602052604081206001018054869290611fd79084906127f4565b90915550506000858152600a602052604081206002018054859290611ffd9084906127f4565b90915550506000858152600a6020526040812060060180548492906120239084906127f4565b90915550505050505050565b336000908152600b6020908152604080832054808452600a909252808320815160e081019092528054849291908290829061206990612662565b80601f016020809104026020016040519081016040528092919081815260200182805461209590612662565b80156120e25780601f106120b7576101008083540402835291602001916120e2565b820191906000526020600020905b8154815290600101906020018083116120c557829003601f168201915b50505091835250506001820154602082015260028201546040808301919091528051606080820192839052909201919060038085019182845b81548152602001906001019080831161211b575050509183525050600682015460208201526007820154604082015260089091015460ff161515606091820152810151909150846003811061217257612172612807565b6020020151949350505050565b6040518060e001604052806060815260200160008152602001600081526020016121a7612202565b815260200160008152602001600081526020016000151581525090565b82600381019282156121f2579160200282015b828111156121f25782518255916020019190600101906121d7565b506121fe929150612220565b5090565b60405180606001604052806003906020820280368337509192915050565b5b808211156121fe5760008155600101612221565b6000815180845260005b8181101561225b5760208185018101518683018201520161223f565b506000602082860101526020601f19601f83011685010191505092915050565b60208152600061228e6020830184612235565b9392505050565b6001600160a01b0381168114611e0557600080fd5b600080604083850312156122bd57600080fd5b82356122c881612295565b946020939093013593505050565b6000602082840312156122e857600080fd5b5035919050565b600060208083528351610120808386015261230e610140860183612235565b91508286015160408601526040860151606086015260608601516080860160005b600381101561234c5782518252918501919085019060010161232f565b505050608086015160e086015260a086015161010086015260c0909501511515949093019390935250919050565b634e487b7160e01b600052604160045260246000fd5b600080600080600060e086880312156123a857600080fd5b85359450602080870135945087605f8801126123c357600080fd5b6040516060810181811067ffffffffffffffff821117156123e6576123e661237a565b6040528060a089018a8111156123fb57600080fd5b60408a015b818110156124175780358352918401918401612400565b50979a969950909796359660c0013595945050505050565b6000806040838503121561244257600080fd5b50508035926020909101359150565b600080600080600060a0868803121561246957600080fd5b505083359560208501359550604085013594606081013594506080013592509050565b6000806000606084860312156124a157600080fd5b83356124ac81612295565b925060208401356124bc81612295565b929592945050506040919091013590565b600080604083850312156124e057600080fd5b82359150602083013580151581146124f757600080fd5b809150509250929050565b600082601f83011261251357600080fd5b813567ffffffffffffffff8082111561252e5761252e61237a565b604051601f8301601f19908116603f011681019082821181831017156125565761255661237a565b8160405283815286602085880101111561256f57600080fd5b836020870160208301376000602085830101528094505050505092915050565b6000602082840312156125a157600080fd5b813567ffffffffffffffff8111156125b857600080fd5b6125c484828501612502565b949350505050565b6000602082840312156125de57600080fd5b813561228e81612295565b600080604083850312156125fc57600080fd5b82359150602083013567ffffffffffffffff81111561261a57600080fd5b61262685828601612502565b9150509250929050565b6000806000806080858703121561264657600080fd5b5050823594602084013594506040840135936060013592509050565b600181811c9082168061267657607f821691505b60208210810361161e57634e487b7160e01b600052602260045260246000fd5b6020808252600f908201526e125b9d985b1a59081d1bdad95b9259608a1b604082015260600190565b634e487b7160e01b600052601160045260246000fd5b6000600182016126e7576126e76126bf565b5060010190565b601f82111561138857600081815260208120601f850160051c810160208610156127155750805b601f850160051c820191505b81811015610d7a57828155600101612721565b815167ffffffffffffffff81111561274e5761274e61237a565b6127628161275c8454612662565b846126ee565b602080601f831160018114612797576000841561277f5750858301515b600019600386901b1c1916600185901b178555610d7a565b600085815260208120601f198616915b828110156127c6578886015182559484019460019091019084016127a7565b50858210156127e45787850151600019600388901b60f8161c191681555b5050505050600190811b01905550565b80820180821115611e6657611e666126bf565b634e487b7160e01b600052603260045260246000fd5b6020808252600690820152652bb2b0b837b760d11b604082015260600190565b60006020828403121561284f57600080fd5b815161228e81612295565b6020808252601e908201527f4e6f742063616c6c656420627920776561706f6e7320636f6e74726163740000604082015260600190565b81810381811115611e6657611e666126bf565b6000602082840312156128b657600080fd5b505191905056fea2646970667358221220cb15d2fe7d33b9591f12c0788c73d61ba559eb19e92b23cac4015a43d42afa2964736f6c63430008100033",
    "sourcePath": "c:/Users/santi/OneDrive/Escritorio/CriptoObli/obligatorio-2023-02-giraz-rodriguez-villar-1/src/contracts/Character.sol",
    "compiler": {
        "name": "solc",
        "version": "0.8.16+commit.07a7930e"
    },
    "functionHashes": {
        "allowance(uint256)": "2e43d7dc",
        "approve(address,uint256)": "095ea7b3",
        "balanceOf(address)": "70a08231",
        "buy(uint256,string)": "b7dc3b18",
        "collectFee()": "d4d5d32a",
        "currentTokenID()": "bb62115e",
        "decreaseStats(uint256,uint256,uint256,uint256,uint256)": "9c9f55fb",
        "equip(uint256,uint256)": "28257532",
        "getSellinformation(uint256)": "dbaa7eff",
        "increaseStats(uint256,uint256,uint256,uint256,uint256)": "2d758d95",
        "isEquiped(uint256,uint256)": "dac49e85",
        "metadataOf(uint256)": "0ef7cc8e",
        "mintHero(uint256,uint256,uint256[3],uint256,uint256)": "1fb93438",
        "mintPrice()": "6817c76c",
        "name()": "06fdde03",
        "ownedBy(address)": "b8377644",
        "ownerOf(uint256)": "6352211e",
        "safeMint(string)": "695850fb",
        "safeTransfer(address,uint256)": "423f6cef",
        "safeTransferFrom(address,address,uint256)": "42842e0e",
        "setMintingPrice(uint256)": "8417b47f",
        "setOnSale(uint256,bool)": "4d0a2c24",
        "slotsAreFull(uint256)": "9d06cbb5",
        "symbol()": "95d89b41",
        "tokenURI()": "3c130d90",
        "totalSupply()": "18160ddd",
        "unEquip(uint256,uint256)": "ab9d983b",
        "upgradeStats(uint256,uint256,uint256,uint256)": "f6a82203",
        "weapon(uint256)": "fd1773dd",
        "weaponCount(uint256)": "a55c6986"
    },
    "gasEstimates": {
        "creation": {
            "codeDepositCost": "2096600",
            "executionCost": "infinite",
            "totalCost": "infinite"
        },
        "external": {
            "allowance(uint256)": "4770",
            "approve(address,uint256)": "35435",
            "balanceOf(address)": "2577",
            "buy(uint256,string)": "infinite",
            "collectFee()": "infinite",
            "currentTokenID()": "2370",
            "decreaseStats(uint256,uint256,uint256,uint256,uint256)": "infinite",
            "equip(uint256,uint256)": "infinite",
            "getSellinformation(uint256)": "8983",
            "increaseStats(uint256,uint256,uint256,uint256,uint256)": "infinite",
            "isEquiped(uint256,uint256)": "infinite",
            "metadataOf(uint256)": "infinite",
            "mintHero(uint256,uint256,uint256[3],uint256,uint256)": "infinite",
            "mintPrice()": "2381",
            "name()": "infinite",
            "ownedBy(address)": "infinite",
            "ownerOf(uint256)": "2544",
            "safeMint(string)": "infinite",
            "safeTransfer(address,uint256)": "infinite",
            "safeTransferFrom(address,address,uint256)": "infinite",
            "setMintingPrice(uint256)": "22380",
            "setOnSale(uint256,bool)": "26807",
            "slotsAreFull(uint256)": "infinite",
            "symbol()": "infinite",
            "tokenURI()": "infinite",
            "totalSupply()": "2327",
            "unEquip(uint256,uint256)": "infinite",
            "upgradeStats(uint256,uint256,uint256,uint256)": "infinite",
            "weapon(uint256)": "infinite",
            "weaponCount(uint256)": "infinite"
        },
        "internal": {
            "_checkERC721Receiver(address,uint256)": "infinite",
            "_isSmartContract(address)": "infinite"
        }
    }
}